S0110000496E746572727570742E7372656346
S11300000C942A000C9492010C94BF010C94EC0102
S11300100C9434000C9434000C9434000C9434008C
S11300200C9434000C9434000C9434000C9434007C
S11300300C9434000C9434000C9434000C9434006C
S11300400C9434000C9434000C9434000C9434005C
S11300500C94340011241FBECFE5D8E0DEBFCDBF21
S11300600E9489010C9410020C9400004423B9F1FD
S1130070413009F06BC0813089F028F08230C9F03A
S1130080833011F108952AB381E090E002C0880F13
S1130090991F6A95E2F7822B8ABB089527B381E002
S11300A090E002C0880F991F6A95E2F7822B87BB04
S11300B0089524B381E090E002C0880F991F6A95E7
S11300C0E2F7822B84BB089521B381E090E002C063
S11300D0880F991F6A95E2F7822B81BB08958130BE
S11300E091F028F08230D9F0833029F108952AB3B1
S11300F081E090E002C0880F991F6A95E2F780952D
S113010082238ABB089527B381E090E002C0880F60
S1130110991F6A95E2F78095822387BB089524B3DB
S113012081E090E002C0880F991F6A95E2F78095FC
S1130130822384BB089521B381E090E002C0880F3C
S1130140991F6A95E2F78095822381BB0895442321
S1130150B9F1413009F06BC0813089F028F0823068
S1130160C9F0833011F108952BB381E090E002C00F
S1130170880F991F6A95E2F7822B8BBB089528B3E9
S113018081E090E002C0880F991F6A95E2F7822B04
S113019088BB089525B381E090E002C0880F991FC1
S11301A06A95E2F7822B85BB089522B381E090E043
S11301B002C0880F991F6A95E2F7822B82BB0895CB
S11301C0813091F028F08230D9F0833029F10895FC
S11301D02BB381E090E002C0880F991F6A95E2F783
S11301E0809582238BBB089528B381E090E002C000
S11301F0880F991F6A95E2F78095822388BB08953A
S113020025B381E090E002C0880F991F6A95E2F758
S11302108095822385BB089522B381E090E002C0DB
S1130220880F991F6A95E2F78095822382BB08950F
S113023081309105A9F01CF4892B39F0089582309E
S11302409105C9F0039711F108952BB381E090E073
S113025002C0880F991F6A95E2F782278BBB089525
S113026028B381E090E002C0880F991F6A95E2F7F5
S1130270822788BB089525B381E090E002C0880FEF
S1130280991F6A95E2F7822785BB089522B381E01E
S113029090E002C0880F991F6A95E2F7822782BB1B
S11302A008958FB780688FBF08950E9451018BB75E
S11302B080648BBF85B7816085BF85B78D7F85BF1F
S11302C008950E9451018BB780688BBF85B78B7FDF
S11302D085BF85B7886085BF08950E9451018BB79B
S11302E080628BBF84B7806484BF089541E062E07C
S11302F082E00E943600089541E062E082E00E94BC
S1130300A700089562E070E082E090E00E94180186
S113031008950E9476010E9455010E9461010E9485
S11303206D01FFCF1F920F920FB60F9211242F93DE
S11303303F934F935F936F937F938F939F93AF9369
S1130340BF93EF93FF930E9482012FEF83ED90E31D
S1130350215080409040E1F700C00000FF91EF91F0
S1130360BF91AF919F918F917F916F915F914F91C9
S11303703F912F910F900FBE0F901F9018951F92D1
S11303800F920FB60F9211242F933F934F935F93C5
S11303906F937F938F939F93AF93BF93EF93FF9349
S11303A00E9482012FEF83ED90E321508040904022
S11303B0E1F700C00000FF91EF91BF91AF919F91D1
S11303C08F917F916F915F914F913F912F910F90FA
S11303D00FBE0F901F9018951F920F920FB60F9299
S11303E011242F933F934F935F936F937F938F9336
S11303F09F93AF93BF93EF93FF930E947C01FF9170
S1130400EF91BF91AF919F918F917F916F915F9188
S11304104F913F912F910F900FBE0F901F90189501
S1070420F894FFCF7A
S9030000FC
